S0030000FC
S325200000001C060020E9050020E9050020E9050020E9050020E9050020E9050020E905002016
S3252000002000000000000000000000000000000000000000000000000000000000000000009A
S3252000004000000000000000000000000000000000000000000000000000000000000000007A
S3252000006000000000000000000000000000000000000000000000000000000000000000005A
S3252000008000000000000000000000000000000000000000000000000000000000000000003A
S325200000A000000000000000000000000000000000000000000000000000000000000000001A
S325200000C00000000000000000000000000000000000000000000000000000000000000000FA
S325200000E000000000000000000FB418B4DFF81800C46AA089002802D1029880B2A081A089F4
S3252000010018BC04B07047C0461C06002038B505466C684FF0FF302061FF20607500214FF2E1
S325200001200400C4F20100016000214FF20800C4F20100016029686FF001000840286000201A
S32520000140BDE838407047000010B504463020207080202070207800F080000028FAD02078F4
S3252000016000F02000002801D008200EE0207800F01000002801D0092007E0207800F0010010
S32520000180002801D00A2000E00020BDE81040704770B504466568206800F00200002801D1BA
S325200001A0002012E04FF0884068602846FFF7CCFF0646002E03D03046FFF796FF05E021684D
S325200001C06FF00200084020600020BDE8704070472DE9F843044666682769A569606980084C
S325200001E0804600208146206800F01000002801D1002032E007F00300002822D00220FFF74C
S3252000020073FF2AE040F20C40874208D1286800F03000202803D10C20FFF766FF1DE047F095
S32520000220C06070602868B0603046FFF78DFF8146B9F1000F03D04846FFF756FF0DE03F1D9B
S325200002402D1D4146A8F1010080460029DAD121686FF01000084020600020BDE8F8437047FC
S325200002602DE9F843044665682769A0698046606980088146206800F02000002801D10020C7
S325200002802DE007F0030000281DD00220FFF72CFF25E047F0007068604FF08070A860D8F85E
S325200002A00000E8602846FFF74FFF0646002E06D00A2E00D105263046FFF716FF0FE03F1DCE
S325200002C008F1040080464946A9F1010081460029DFD121686FF02000084020600020BDE8D6
S325200002E0F84370472DE9F84304466768256960692818401E8046E089401E8146206800F0BB
S325200003000400002801D1002025E06069002801D1002020E06FEA0900054048EA0900804609
S3252000032011E045F0106078603846FFF70DFF0646002E06D00A2E00D106263046FFF7D4FEE6
S3252000034009E0E0892D184545EBD921686FF00400084020600020BDE8F84370472DE9F041E0
S325200003600446656827696069C01DC0088046206800F00800002801D1002029E007F00700DB
S3252000038000281CD00220FFF7AFFE21E047F0807068604FEA084040F48070A8602846FFF75D
S325200003A0D3FE0646002E06D00A2E00D106263046FFF79AFE0CE0A8F1010080460837B8F189
S325200003C0000FE3D121686FF00800084020600020BDE8F0417047000010B50446206800F048
S325200003E04000002801D100201AE0206800F4C870002803D00220FFF777FE11E04FF4806033
S325200004002061DFF82400A06110206061206840F01800206021686FF04000084020600020E8
S32520000420BDE810407047C0464C06002010B50446206800F08000002801D100201AE02068CF
S3252000044000F4A870002803D00220FFF74DFE11E04FF480602061DFF82400A061102060618A
S32520000460206840F01800206021686FF08000084020600020BDE810407047C0465C06002082
S3252000048038B50446206800F48070002801D100200CE00225002D03D02846FFF725FE05E0FA
S325200004A021686FF4F870084020600020BDE83840704700002DE9F84FDFF822114EF6085003
S325200004C0CEF2000001604CF2205142F20E00C4F2050001804DF6281142F20E00C4F205002F
S325200004E00180122142F20000C4F205000180DFF8F200C46A21686FF00040084020600021AA
S32520000500DFF8DE00C06A818161680020814207D10220FFF7E9FD206840F0004020605AE0A0
S3252000052000204FF0000B4FF0000A0025002600274FF000084FF000092046FFF7E7FD002879
S3252000054006D12046FFF79CFF002801D14FF00109B9F1000F06D02046FFF73EFF002801D142
S325200005604FF00108B8F1000F05D02046FFF75EFF002800D10127002F05D02046FFF708FE40
S32520000580002800D10126002E05D02046FFF7AAFE002800D10125002D06D02046FFF7DEFEB4
S325200005A0002801D14FF0010ABAF1000F06D02046FFF70EFE002801D14FF0010BBBF1000FD9
S325200005C005D02046FFF74CFE002800D10120206840F000402060BDE8F84F7047C04600003F
S325200005E000201C060020000008B50720FFF77CFDDFF81400C16A086840F00040086000BE04
S32520000600BDE808407047C0461C060020DFF808008546FFF74FFF00BEE800002000000020F4
S325200006200D0600207E000020000000000000000000000000000000000000000000000000C3
S32520000640000000000000000000000000FFFFFFFFFFFFFFFFFFFFFFFFFEFFFFFF1111111141
S3112000066011111111FFFFFFFFBFFFFFFF6C
S7052000061CB8
