S0030000FC
S345200000000C070020C1060020C1060020C1060020C1060020C1060020C1060020C1060020000000000000000000000000000000000000000000000000000000000000000016
S34520000040000000000000000000000000000000000000000000000000000000000000000000000000000000000000000000000000000000000000000000000000000000005A
S34520000080000000000000000000000000000000000000000000000000000000000000000000000000000000000000000000000000000000000000000000000000000000001A
S345200000C0000000000000000000000000000000000000000000000000000000000000000000000000000000000FB418B4DFF81800C46AA089002802D1029880B2A081A089F4
S3452000010018BC04B07047C0460C07002010B5044642F21000C4F20200006800F08000002811D040F22311C4F2675142F20400C4F20200016048F6AB11CCF6EF5142F20400DC
S34520000140C4F20200016042F21000C4F20200006800F08000002803D00120FFF7C5FF05E021686FF00100084020600020BDE810407047000010B50446206800F480300028D1
S3452000018003D10020FFF7B0FF28E042F21000C4F20200006800F40070002811D140F22311C4F2675142F20800C4F20200016048F6AB11CCF6EF5142F20800C4F2020001602C
S345200001C042F21000C4F20200006800F40070002803D10120FFF788FF00E00020BDE810407047000010B50446206800F00200002801D100203AE0042142F21000C4F20200ED
S345200002000160442142F21000C4F20200016042F20C00C4F20200006800F001000028F6D1002142F21000C4F20200016042F20C00C4F20200006800F00400002803D0032045
S34520000240FFF752FF12E042F20C00C4F20200006800F01000002803D00420FFF745FF05E021686FF00200084020600020BDE8104070470000F8B504462669A569606940085E
S3452000028087B2206800F01000002801D1002072E006F00100002803D00220FFF725FF6AE0206800F48030002807D04FF4047142F21000C4F2020001604CE0012142F21000A1
S345200002C0C4F20200016045E02888308042F20C00C4F20200006800F001000028F6D142F20C00C4F20200006800F00400002809D0002142F21000C4F2020001600320FFF70E
S34520000300F3FE38E042F20C00C4F20200006800F01000002809D0002142F21000C4F2020001600420FFF7E0FE25E0206800F4803000280DD131882888814209D0002142F226
S345200003401000C4F2020001600520FFF7CDFE12E0B61CAD1C38467F1EBFB20028B4D1002142F21000C4F20200016021686FF01000084020600020BDE8F8407047F8B5044699
S345200003802569A6696069400887B2206800F02000002801D100201CE005F0010000280DD00220FFF7A1FE14E029883088814203D00520FFF799FE0CE0AD1CB61C38467F1E89
S345200003C0BFB20028F0D121686FF02000084020600020BDE8F8407047F8B50446256960692E18DFF8FC008089471E206800F00400002801D100206FE0F84305403E432068B6
S3452000040000F48030002807D04FF4087142F21000C4F20200016051E0022142F21000C4F2020001604AE042F21400C4F202000560206800F48030002807D04FF4187142F26F
S345200004401000C4F20200016005E0422142F21000C4F20200016042F20C00C4F20200006800F001000028F6D142F20C00C4F20200006800F00400002809D0002142F210008E
S34520000480C4F2020001600320FFF72EFE24E042F20C00C4F20200006800F01000002809D0002142F21000C4F2020001600420FFF71BFE11E0DFF8280080892D18B542B2D3E8
S345200004C0002142F21000C4F20200016021686FF00400084020600020BDE8F8407047C0460C07002070B5044625696069401C400886B2206800F00800002801D100201BE080
S3452000050005F0010000280FD00220FFF7EDFD13E029884FF6FF70814203D00620FFF7E4FD0AE0761EB6B2AD1C002EF1D121686FF00800084020600020BDE870407047000028
S3452000054010B50446206800F04000002801D100201EE0206800F01400002803D00220FFF7C3FD15E04FF60000C1F6FF702061DFF82800A0611020606121681420C0F20100D5
S345200005800843206021686FF04000084020600020BDE810407047C0463C07002010B50446206800F08000002801D100201EE0206800F01400002803D00220FFF795FD15E0E0
S345200005C04FF60000C1F6FF702061DFF82800A0611020606121681420C0F201000843206021686FF08000084020600020BDE810407047C0464C07002038B50446206800F495
S345200006008070002801D100200CE00225002D03D02846FFF769FD05E021686FF4F870084020600020BDE838407047000010B5DFF878104EF60850CEF200000160DFF86C0094
S34520000640C46A21686FF00040084020600021DFF85C00C06A81812046FFF758FD2046FFF7CBFF2046FFF76CFF2046FFF797FF2046FFF7B8FD2046FFF77DFD2046FFF7ACFE39
S345200006802046FFF72FFF2046FFF774FD2046FFF7F1FD2046FFF772FE206840F000402060BDE810407047C046000000200C070020DFF808008546FFF7B9FF00BEE80000200C
S345200006C008B50720FFF710FDDFF80E00C16A086840F000400860FEE7C0460C070020000010B5DFF80E40DFF80E00E06260688047FEE70C0700205C0700200000DFF808005D
S345200007008546FFF7EDFFC046E800002000000020B10600207E000010000400000000000000000000000000000000000000000000000000000000000000000000A5000700A3
S33D20000740FF00FF00FF00FF00FF00FF0000000700FF00FF00FF00FF00FF00FF0043000000000000000000000055AA00000000000000000000000000001E
S705200006FCD8
