S07C0000433A5C50657465725C446576656C6F706D656E745C555342444D5C466C6173685F50726F6772616D6D696E675F526F7574696E65735C48435331322D584D4D432D5846544D524B2D666C6173682D70726F6772616D5C62696E5C48435331322D584D4D432D5846544D524B2D666C6173682D70726F6772616DAB
S12330003002300033CAE03E0000000000000000000000000000000000000000000000002F
S1233020000000000000000000000000000000000000000000000000EEFAFFD26B030C0059
S12330400000B7C55B1018EC003DB7450E008036EC01C140251A86FDC1802508A601C1C03E
S1233060250686FFE7012621585849498A402014C1082515C10B2211C40337B7018759593C
S12330808A10EAB06C0169003DC60205FAFFA91B9CECFAFF796C80EE800F01011DEE80ED7E
S12330A0046D820E408006C60B15FAFF8BEE82C6FF6B086B09EE800D01011B843D1B9DEEC0
S12330C0FAFF4BEE041A066E81EE81C6806B00EE81E6006B800F80B0F60F802006C608157A
S12330E0FAFF550F801006C60915FAFF4B1B833D1B9CECFAFF186C80EE800F010218EE8030
S1233100ED046D82CC08306B4669426A4A15FAFFACEE800D01021B843D1B93ECFAFEEF6CB6
S123312084EE840E01100418200099EE84EC046C8BEE84EC0A6C80EC0C6C82EE84ECE010C0
S12331406C86EE84EC0E4949496C890F830706C60215FAFEE3EE840F0F0706C60215FAFE74
S1233160D7EC808C00402403C6118FC6066B88EE8BC6306B06203FEE8B6902E6886B0AE604
S1233180816B0BC6016B02EC826C0AC6026B02ED86EC716D866C0AC603072CC6040728C6F3
S12331A005072415FAFF16EC82C300086C82EC80C90089006C80EE89191F6D890475B8EE22
S12331C0840D01101B8D3D6B02EC716D886C0A3D1B96ECFAFE386C84EE840F012059EE84C8
S12331E0EC0A6C80EC0C6C82EE84ECE0106C88EE84EC0E496C860F83012FC60215FAFE384B
S12332002027EC82EE8015FAFE38EE8819026D88AC002706C60515FAFE1EEC82C300026C4E
S123322082EC80C90089006C80EE86191F6D860475D0EE840D01201B8A3D1BF1EDECFAFD18
S1233240CD6C88EE880E010404182000B1EE88EC046CF011EE88EC0A6C80EC0C6C82EE88AC
S1233260EC0E830001E3826C86CC000018E3806C84EE88ED086D8F0318516D8CCCFFFF6C3C
S12332808AEE88ED0E26022070EE8218A48C6E82E481A4806C80EE8F18AB866E86CD0000D3
S12332A018E9846D8418A48C6E86EE8A18A4846E848C00402403C6128FC60A6B8EEEF0119C
S12332C0C6306B062027EEF0116902E68E6B0AE6816B0BC6016B02EC826C0A15FAFDDEEC2E
S12332E08FE3826C82CC000018E3806C80EC82AC8626D3EC80AC8426CDEE880D01041BF0FA
S1233300133D1B98ECFAFD066C84EE840F01084DEE84EC0A6C80EC0C6C82EE84EC0EC3008D
S12333200349496C860F83012BC60215FAFD092023EC82EE8015FAFD09048406C60615FACA
S1233340FCF6186386EC82C300026C82EC80C90089006C80EC8626D9EE840D01081B883DD2
S1233360EEFAFCAA0F00010ECD00006D08876D060430FD0220F83D1B9C1AFAFC856E82EEAF
S123338082EC0C6C80EE82ED066940EE800D0080186902EC042606C60215FAFC9BEC80C380
S12333A0000A15FAFCA415FAFCE515FAFFB215FAFD3E15FAFE8415FAFF4815FAFD5B15FAF9
S11833C0FE0EEE800C00801B843D14101BFAFC673207A4003D5C
S105FFFE33D4F6
S9030000FC
