S0030000FC
S34520000000910500207E000000000000000000000000000000000000000000000000040000000000000000000000000000000000000000000000000000000000000000000062
S34520000040A5000700FF00FF00FF00FF00FF00FF00000000000000000000000000000000000000000000000000000000000000000000000000000000000000000000000000B4
S3452000008000000000A9060020A9060020A9060020A9060020A9060020A9060020A90600200FB4DFF81C00007E002804D10098C1B2DFF80C000176DFF80800007E04B0704713
S345200000C00000002010B50446A06800F00100002803D10020FFF7E4FF2FE042F21000C4F20200006800F08000002811D040F22311C4F2675142F20400C4F20200016048F66E
S34520000100AB11CCF6EF5142F20400C4F20200016042F21000C4F20200006800F08000002803D00120FFF7BCFF07E0A1686FF001000840A0600020FFF7B3FFBDE810407047DD
S3452000014010B50446A06800F48030002803D10020FFF7A6FF2AE042F21000C4F20200006800F40070002811D140F22311C4F2675142F20800C4F20200016048F6AB11CCF626
S34520000180EF5142F20800C4F20200016042F21000C4F20200006800F40070002803D10120FFF77EFF02E00020FFF77AFFBDE810407047000010B50446A06800F002000028DE
S345200001C003D10020FFF76CFF3CE0042142F21000C4F202000160442142F21000C4F20200016042F20C00C4F20200006800F001000028F6D1002142F21000C4F20200016066
S3452000020042F20C00C4F20200006800F00400002803D00320FFF744FF14E042F20C00C4F20200006800F01000002803D00420FFF737FF07E0A1686FF002000840A060002095
S34520000240FFF72EFFBDE8104070470000F8B50446E66865692069400887B2A06800F01000002803D10020FFF71BFF74E006F00100002803D00220FFF713FF6CE0A06800F480
S345200002808030002807D04FF4047142F21000C4F2020001604CE0012142F21000C4F20200016045E02888308042F20C00C4F20200006800F001000028F6D142F20C00C4F2EE
S345200002C00200006800F00400002809D0002142F21000C4F2020001600320FFF7E1FE3AE042F20C00C4F20200006800F01000002809D0002142F21000C4F2020001600420E6
S34520000300FFF7CEFE27E0A06800F4803000280DD131882888814209D0002142F21000C4F2020001600520FFF7BBFE14E0B61CAD1C38467F1EBFB20028B4D1002142F2100098
S34520000340C4F202000160A1686FF010000840A0600020FFF7A5FEBDE8F8407047F8B50446E56866692069400887B2A06800F02000002803D10020FFF793FE1EE005F0010065
S3452000038000280DD00220FFF78BFE16E029883088814203D00520FFF783FE0EE0AD1CB61C38467F1EBFB20028F0D1A1686FF020000840A0600020FFF773FEBDE8F8407047F7
S345200003C070B50446E56820692E18A06800F00400002803D10020FFF763FE74E06FF001000540711C6FF0010001EA0006A06800F48030002807D04FF4087142F21000C4F2A5
S34520000400020001604FE0022142F21000C4F20200016048E042F21400C4F202000560A06800F48030002807D04FF4187142F21000C4F20200016005E0422142F21000C4F2E1
S345200004400200016042F20C00C4F20200006800F001000028F6D142F20C00C4F20200006800F00400002809D0002142F21000C4F2020001600320FFF713FE24E042F20C0072
S34520000480C4F20200006800F01000002809D0002142F21000C4F2020001600420FFF700FE11E0E0692D18B542B4D3002142F21000C4F202000160A1686FF004000840A06030
S345200004C00020FFF7EDFDBDE87040704770B50446E5682069401C400886B2A06800F00800002803D10020FFF7DBFD1DE005F0010000280FD00220FFF7D3FD15E029884FF6F2
S34520000500FF70814203D00620FFF7CAFD0CE0761EB6B2AD1C002EF1D1A1686FF008000840A0600020FFF7BCFDBDE870407047000010B50446A06800F04000002803D1002016
S34520000540FFF7AEFD20E0A06800F01400002803D00220FFF7A5FD17E04FF60000C1F6FF70E06004F14000606110202061A1681420C0F201000843A060A1686FF0400008407F
S34520000580A0600020FFF78CFDBDE81040704700002DE9F047DFF8F2104EF60850CEF200000160DFF8EA0081686FF000400140DFF8DE0081600021DFF8D6000176002000243E
S345200005C00025002600274FF000084FF000094FF0000ADFF8BE00FFF775FD002807D1DFF8B200FFF7A5FF002801D14FF0010ABAF1000F07D0DFF89A00FFF7DCFD002801D15C
S345200006004FF00109B9F1000F07D0DFF88600FFF797FD002801D14FF00108B8F1000F06D0DFF86E00FFF7CCFE002800D10127002F06D0DFF85E00FFF749FF002800D1012646
S34520000640002E06D0DFF84A00FFF77AFD002800D10125002D06D0DFF83A00FFF7F7FD002800D10124002C06D0DFF82600FFF776FE002800D10120DFF81600806840F00041BE
S34520000680DFF80A008160FEE7C0468000002000000020000000200000DFF808008546FFF777FFC046A000002008B50820FFF7F8FCDFF80E00806840F00041DFF806008160E0
S30B200006C0FEE70000002009
S705200006983C
